:100000000C944C000C9463000C9463000C946300FB
:100010000C9463000C9463000C9463000C946300D4
:100020000C9463000C9463000C9463000C946300C4
:100030000C9463000C9463000C9463000C946300B4
:100040000C9463000C9463000C9463000C946300A4
:100050000C9463000C9463000C9463000C94630094
:100060000C9463000C9463000C9463000C94630084
:100070000C9463000C9463000C9463000C94630074
:100080000C9463000C9463000C9463000C94630064
:100090000C9463000C94630011241FBECFEFD0E2D8
:1000A000DEBFCDBF11E0A0E0B1E0E6E0F1E000E0AE
:1000B0000BBF02C007900D92A230B107D9F70E9482
:1000C00065000C9481000C9400000C94670000E81B
:1000D00015E00093610010936100569A5E985E9A55
:1000E00009D008D05E9806D05E9A04D05E9802D0FF
:1000F00001D0F5CF04E12AEF0A95F1F71A95D9F767
:060100000895F894FFCF02
:020106000000F7
:00000001FF
