:1000000005C1000020C100001EC100001CC100008D
:100010001AC1000018C1000016C1000014C1000080
:1000200012C1000010C1000002C500004EC5000052
:100030000AC1000008C1000006C1000004C10000A0
:1000400002C1000000C10000FEC00000FCC00000B2
:10005000FAC00000F8C00000F6C00000F5C00000C3
:10006000F2C00000F0C00000EEC00000ECC00000D4
:10007000EAC00000E8C00000E6C00000E4C00000E4
:10008000E2C00000E0C00000DEC00000DCC00000F4
:10009000DAC00000D8C000000A002C20723D0074B5
:1000A00072616E736D6974207061636B657420009A
:1000B0000A0072656365697665207061636B6574BB
:1000C0002C206275666665725B305D3D0042656737
:1000D000696E20726177686964206578616D706C03
:1000E000652070726F6772616D0A00000100003454
:1000F0000112000200004601420022000088011C9B
:100100000021000058010900220100A4011500216E
:10011000010078010900030000B90104010309048A
:10012000BD011002030904CF012E01C13601C03602
:1001300001C126001201000200000010C016800458
:1001400000010102000109024200020100C032095F
:100150000400000203000000092111010001221C1B
:10016000000705810340000207050203400008095B
:100170000401000103000000092111010001221502
:10018000000705830320000106ABFF0A0002A1015E
:100190007508150026FF0095400901810295400968
:1001A000029102C00631FF0974A15375081500269B
:1001B000FF00952009758102C00403090410034D56
:1001C00000660067004E0061006D00650000002EB3
:1001D000035400650065006E007300790020005232
:1001E00000610077002000480049004400200045DD
:1001F00000780061006D0070006C00650000000078
:1002000001040506070D0C0B0A09080011241FBE86
:10021000CFEFD0E2DEBFCDBF11E0A0E0B1E0E6EF6E
:10022000FEE000E00BBF02C007900D92A230B107C4
:10023000D9F711E0A2E0B1E001C01D92A934B107E5
:10024000E1F71AD056C6DCCE1F920F920FB60F926E
:1002500011248F93809103018F5F809303018B376B
:1002600028F01092030181E0809302018F910F909A
:100270000FBE0F901F901895BF92CF92DF92EF9212
:10028000FF920F931F93CF93DF9380E880936100D9
:100290001092610068D07ED08823E9F380E197E274
:1002A00020E931E0F9013197F1F70197D9F714BC52
:1002B00085E085BD81E080936E008DEC90E005D6F1
:1002C000EE24FF242FE0B22E9BEAC92E8DECD82E0F
:1002D00089E091E060E061D0082F18168CF4BAB87C
:1002E0009BB1809109018F70907F892B8BB982EB34
:1002F00090E0EBD580910901D6D580EB90E0E5D573
:1003000080910201882321F310920201C092090119
:10031000D0920A01CBE0D1E010E0812F77D598830D
:1003200089831F5F22961C30C1F7E3E2F1E011924E
:1003300081E0E734F807D9F7F082E182CF01CE9768
:1003400062E3ADD18FE990E0C0D5C701B6D58AE9A7
:1003500090E0BBD5802FA7D588E990E0B6D508946A
:10036000E11CF11CB5CF81E88093D70080EA80932F
:10037000D80086E189BD09B400FEFDCF80E98093F5
:10038000D8001092E000109204018CE08093E2000B
:1003900078940895809104010895DC01809104010E
:1003A000882309F47AC12FB7F8946093060182E09C
:1003B0008093E90092E08091E80085FD10C02FBF96
:1003C00080910601882309F469C180910401882382
:1003D00009F463C12FB7F8949093E900ECCF8091B2
:1003E000F100FD0181938091F10011968C93DF0162
:1003F00011968091F1008183FD0131968091F10089
:1004000011968C93DF0111968091F1008183FD019B
:1004100031968091F10011968C93DF0111968091B5
:10042000F1008183FD0131968091F10011968C934A
:10043000DF0111968091F1008183FD013196809159
:10044000F10011968C93DF0111968091F100818368
:10045000FD0131968091F10011968C93DF01119688
:100460008091F1008183FD0131968091F100119618
:100470008C93DF0111968091F1008183FD0131960B
:100480008091F10011968C93DF0111968091F1001B
:100490008183FD0131968091F10011968C93DF01EB
:1004A00011968091F1008183FD0131968091F100D8
:1004B00011968C93DF0111968091F1008183FD01EB
:1004C00031968091F10011968C93DF011196809105
:1004D000F1008183FD0131968091F10011968C939A
:1004E000DF0111968091F1008183FD0131968091A9
:1004F000F10011968C93DF0111968091F1008183B8
:10050000FD0131968091F10011968C93DF011196D7
:100510008091F1008183FD0131968091F100119667
:100520008C93DF0111968091F1008183FD0131965A
:100530008091F10011968C93DF0111968091F1006A
:100540008183FD0131968091F10011968C93DF013A
:1005500011968091F1008183FD0131968091F10027
:1005600011968C93DF0111968091F1008183FD013A
:1005700031968091F10011968C93DF011196809154
:10058000F1008183FD0131968091F10011968C93E9
:10059000DF0111968091F1008183FD0131968091F8
:1005A000F10011968C93DF0111968091F100818307
:1005B000FD0131968091F10011968C93DF01119627
:1005C0008091F1008183FD0131968091F1001196B7
:1005D0008C93DF0111968091F1008183FD013196AA
:1005E0008091F10011968C93DF0111968091F100BA
:1005F0008183FD0131968091F10011968C93DF018A
:1006000011968091F1008183FD0131968091F10076
:1006100011968C93DF0111968091F1008183FD0189
:1006200031968091F10011968C93DF0111968091A3
:10063000F1008183FD0131968091F10011968C9338
:10064000DF0111968091F1008183FD013196809147
:10065000F10011968C93DF0111968091F100818356
:10066000FD0131968091F10011968C93DF01119676
:100670008091F1008183FD0131968091F100119606
:100680008C938091F10081838091F10082838BE6CD
:100690008093E8002FBF80E408958FEF0895DC0178
:1006A00080910401882309F47AC12FB7F8946093EC
:1006B000070181E08093E90091E08091E80085FDE9
:1006C00010C02FBF80910701882309F469C1809170
:1006D0000401882309F463C12FB7F8949093E900CB
:1006E000ECCFFD0181918093F10011968C91809364
:1006F000F100DF01119681818093F100FD013196B7
:1007000011968C918093F100DF0111968181809385
:10071000F100FD01319611968C918093F100DF017B
:10072000119681818093F100FD01319611968C9193
:100730008093F100DF01119681818093F100FD012A
:10074000319611968C918093F100DF011196818191
:100750008093F100FD01319611968C918093F10008
:10076000DF01119681818093F100FD013196119690
:100770008C918093F100DF01119681818093F100CB
:10078000FD01319611968C918093F100DF01119655
:1007900081818093F100FD01319611968C918093B7
:1007A000F100DF01119681818093F100FD01319606
:1007B00011968C918093F100DF01119681818093D5
:1007C000F100FD01319611968C918093F100DF01CB
:1007D000119681818093F100FD01319611968C91E3
:1007E0008093F100DF01119681818093F100FD017A
:1007F000319611968C918093F100DF0111968181E1
:100800008093F100FD01319611968C918093F10057
:10081000DF01119681818093F100FD0131961196DF
:100820008C918093F100DF01119681818093F1001A
:10083000FD01319611968C918093F100DF011196A4
:1008400081818093F100FD01319611968C91809306
:10085000F100DF01119681818093F100FD01319655
:1008600011968C918093F100DF0111968181809324
:10087000F100FD01319611968C918093F100DF011A
:10088000119681818093F100FD01319611968C9132
:100890008093F100DF01119681818093F100FD01C9
:1008A000319611968C918093F100DF011196818130
:1008B0008093F100FD01319611968C918093F100A7
:1008C000DF01119681818093F100FD01319611962F
:1008D0008C918093F100DF01119681818093F1006A
:1008E000FD01319611968C918093F100DF011196F4
:1008F00081818093F100FD01319611968C91809356
:10090000F100DF01119681818093F100FD013196A4
:1009100011968C918093F100DF0111968181809373
:10092000F100FD01319611968C918093F100DF0169
:10093000119681818093F100FD01319611968C9181
:100940008093F100DF01119681818093F100FD0118
:10095000319611968C918093F100DF01119681817F
:100960008093F100FD01319611968C918093F100F6
:10097000DF01119681818093F100FD01319611967E
:100980008C918093F10081818093F100828180932A
:10099000F1008AE38093E8002FBF80E408958FEF91
:1009A0000895482F80910401882309F43EC02FB791
:1009B000F89483E08093E90080910801882341F056
:1009C0008091E80085FD02C02FBF12C0109208017F
:1009D0009091E4009D5F33E08091E80085FD13C0B5
:1009E0002FBF8091E400891729F481E080930801EA
:1009F0008FEF0895809104018823B9F02FB7F89400
:100A00003093E900E9CF4093F1008091E80085FD43
:100A100006C08AE38093E8001092050103C082E0DB
:100A2000809305012FBF80E008958FEF08951F92F6
:100A30000F920FB60F9211248F939F938091E10034
:100A40001092E100982F83FF0FC01092E90081E01F
:100A50008093EB001092EC0082E18093ED0088E03F
:100A60008093F0001092040192FF28C0809104014D
:100A7000882321F180910501882391F08150809392
:100A80000501882369F483E08093E90002C0109295
:100A9000F1008091E80085FDFACF8AE38093E800B9
:100AA00080910601882319F081508093060180917E
:100AB0000701882319F08150809307019F918F913E
:100AC0000F900FBE0F901F9018951F920F920FB6A8
:100AD0000F920BB60F9211242F933F934F935F9376
:100AE0006F937F938F939F93AF93BF93CF93DF9336
:100AF000EF93FF931092E9008091E80083FF6EC1AD
:100B00004091F1003091F1008091F100A82FB0E008
:100B10002091F100922F80E0A82BB92B8091F10059
:100B2000682F70E02091F100922F80E0682B792BE4
:100B30008091F100C82FD0E02091F100922F80E049
:100B4000C82BD92B82EF8093E800363009F056C0CD
:100B500022EF30E0A90145505040F90137978591C7
:100B600094918A179B07E1F4FA0185919491861775
:100B70009707B1F49A012E5F3F4FF9016591749187
:100B80002E5F3F4FF9012491CE01CF3FD10519F0DF
:100B900010F08FEF90E0422F821758F4482F09C0D1
:100BA000295F3F4F495F5F4FF1E021333F07A9F6CF
:100BB00015C15EEF8091E800282F30E0C9018570F3
:100BC0009070892BB9F322FD0CC1342F413108F00C
:100BD00030E1CB01232F06C0FC010196E491E093A4
:100BE000F10021502223C1F7630F711D431B509365
:100BF000E8004423F9F63031E9F2F3C0353061F40E
:100C00008EEF8093E8008091E80080FFFCCF8A2F70
:100C100080688093E300E5C0393031F5442309F062
:100C200072C0A09304018EEF8093E8008AE291E005
:100C300021E02093E900FC010196E491E093EB00B0
:100C4000EE2369F0AC014F5F5F4FFC01849180930C
:100C5000EC00CA010196FA0134913093ED002F5F48
:100C6000253039F78EE14AC0383061F4403809F058
:100C70004AC08091E80080FFFCCF809104018093FE
:100C8000F10081C03323D1F48091E80080FFFCCFD4
:100C9000423811F080E00DC06093E9008091EB00D4
:100CA00090E025E0969587952A95E1F7817010925E
:100CB000E9008093F1001092F10065C0313011F02D
:100CC000333009F54230F9F4AB2BE9F4262F2F77B6
:100CD000822F81508430B8F48EEF8093E800209307
:100CE000E900333009F47AC089E18093EB0081E0B8
:100CF00090E002C0880F991F2A95E2F78093EA00DE
:100D00001092EA006EC06115710509F040C0413AC9
:100D100019F5313009F062C040E45EEF8091E800DF
:100D2000282F30E0C90185709070892BB9F322FD1E
:100D300058C0942F413108F090E1892F03C01092E0
:100D4000F10081508823D9F7491B5093E8004423D0
:100D500029F7903119F345C0413209F03FC03930CD
:100D6000E9F590E42BEF8091E80082FFFCCF20931F
:100D7000E800892F913108F080E1981BA1F780915C
:100D8000E80080FFFCCF8EEF8093E8002AC061303E
:100D9000710521F5313011F5413A01F54C2F5EEF27
:100DA0008091E800282F30E0C90185709070892B70
:100DB000B9F322FD16C0942F413108F090E1892F3C
:100DC00003C01092F10081508823D9F7491B50933A
:100DD000E800442329F7903119F303C081E280939E
:100DE000EB00FF91EF91DF91CF91BF91AF919F9178
:100DF0008F917F916F915F914F913F912F910F90C4
:100E00000BBE0F900FBE0F901F9018958C3018F0EE
:100E100020E030E03EC0E82FF0E0E150FE4F34919A
:100E200040910001383080F420917E0081E090E014
:100E3000032E02C0880F991F0A94E2F7282B2093F3
:100E40007E0010927B0011C0385020917D0081E01F
:100E500090E0032E02C0880F991F0A94E2F7282B16
:100E600020937D0080E280937B00342B30937C00C4
:100E700087EC80937A0080917A0086FDFCCF3091D8
:100E8000780020917900922F80E0232F30E0282BEA
:100E9000392BC9010895982F8A3010F087E301C0DB
:100EA00080E3890F7ECD1F93182F82958F70F3DF1B
:100EB000812F8F70F0DF1F9108951F93182F892FB6
:100EC000F2DF812FF0DF1F9108951F93CF93DF93FF
:100ED000EC01FE0121961491112339F01A3011F41E
:100EE0008DE05FDD812F5DDDF4CFDF91CF911F912C
:060EF0000895F894FFCF05
:020EF6004000BA
:00000001FF
